:020000040020DA
:100000001FB500F089F81FBD10B510BD00F031F824
:100010001146FFF7F5FF00F073F800F04FF803B456
:10002000FFF7F2FF03BC00F057F8000009488047D3
:1000300009480047FEE7FEE7FEE7FEE7FEE7FEE7CA
:10004000FEE7FEE7FEE7FEE704480549054A064BE2
:1000500070470000E9002000F90100086800022054
:10006000680602206802022068020220704770477A
:100070007047754600F02CF8AE46050069465346B9
:1000800020F00700854618B020B5FFF7DDFFBDE87A
:1000900020404FF000064FF000074FF000084FF0EF
:1000A000000BAC46ACE8C009ACE8C009ACE8C0093C
:1000B000ACE8C00921F007018D46704710B5044631
:1000C000AFF300802046BDE81040FFF7A8BF000056
:1000D000004870470800022001491820ABBEFEE727
:1000E00026000200704700004EF68850CEF2000055
:1000F000016841F4700101607047000000000000D9
:1001000040F20001C2F202010868013008600A688A
:1001100000200A320A607047F1EE100A4FF6FF71B4
:10012000C0F2C03120EA010040F04070E1EE100A58
:040130007047000014
:020000040800F2
:10000000680602202D002000350020003700200067
:10001000390020003B0020003D00200000000000CF
:100020000000000000000000000000003F00200071
:100030004100200000000000430020004500200097
:100040004700200047002000470020004700200014
:100050004700200047002000470020004700200004
:1000600047002000470020004700200047002000F4
:1000700047002000470020004700200047002000E4
:1000800047002000470020004700200047002000D4
:1000900047002000470020004700200047002000C4
:1000A00047002000470020004700200047002000B4
:1000B00047002000470020004700200047002000A4
:1000C0004700200047002000470020004700200094
:1000D0004700200047002000470020004700200084
:1000E0004700200047002000470020004700200074
:1000F0004700200047002000470020004700200064
:100100004700200047002000470020004700200053
:100110004700200047002000470020004700200043
:100120004700200047002000470020004700200033
:100130004700200047002000470020004700200023
:100140004700200047002000470020004700200013
:100150004700200047002000470020004700200003
:1001600047002000470020004700200047002000F3
:10017000470020004700200047002000000000004A
:1001800047002000470020004700200047002000D3
:1001900047002000470020004700200047002000C3
:1001A00047002000470020004700200047002000B3
:1001B00047002000470020004700200047002000A3
:1001C00047002000470020000000000047002000FA
:1001D0004700200047002000470020004700200083
:1001E0004700200047002000470020004700200073
:1001F000470020004700200000F002F800F036F829
:100200000AA090E8000C82448344AAF10107DA4571
:1002100001D100F02BF8AFF2090EBAE80F0013F08D
:10022000010F18BFFB1A43F0010318474C000000F0
:100230006C000000103A24BF78C878C1FAD8520781
:1002400024BF30C830C144BF04680C607047000050
:100250000023002400250026103A28BF78C1FBD8CF
:10026000520728BF30C148BF0B60704740F20D0CE9
:10027000C0F2200C60470000980200080000022035
:100280000800000034020008A00200080800022054
:10029000600600005002000812000000000000008C
:04000005080001F9F5
:00000001FF
