:020000040800F2
:100000006806022099020008A1020008A302000865
:10001000A5020008A7020008A902000800000000CD
:10002000000000000000000000000000AB0200081B
:10003000AD02000800000000AF020008B102000895
:10004000B3020008B3020008B3020008B3020008BC
:10005000B3020008B3020008B3020008B3020008AC
:10006000B3020008B3020008B3020008B30200089C
:10007000B3020008B3020008B3020008B30200088C
:10008000B3020008B3020008B3020008B30200087C
:10009000B3020008B3020008B3020008B30200086C
:1000A000B3020008B3020008B3020008B30200085C
:1000B000B3020008B3020008B3020008B30200084C
:1000C000B3020008B3020008B3020008B30200083C
:1000D000B3020008B3020008B3020008B30200082C
:1000E000B3020008B3020008B3020008B30200081C
:1000F000B3020008B3020008B3020008B30200080C
:10010000B3020008B3020008B3020008B3020008FB
:10011000B3020008B3020008B3020008B3020008EB
:10012000B3020008B3020008B3020008B3020008DB
:10013000B3020008B3020008B3020008B3020008CB
:10014000B3020008B3020008B3020008B3020008BB
:10015000B3020008B3020008B3020008B3020008AB
:10016000B3020008B3020008B3020008B30200089B
:10017000B3020008B3020008B30200080000000048
:10018000B3020008B3020008B3020008B30200087B
:10019000B3020008B3020008B3020008B30200086B
:1001A000B3020008B3020008B3020008B30200085B
:1001B000B3020008B3020008B3020008B30200084B
:1001C000B3020008B302000800000000B3020008F8
:1001D000B3020008B3020008B3020008B30200082B
:1001E000B3020008B3020008B3020008B30200081B
:1001F000B3020008B302000800F002F800F03CF877
:100200000AA090E8000C82448344AAF10107DA4571
:1002100001D100F031F8AFF2090EBAE80F0013F087
:10022000010F18BFFB1A43F00103184778010000C3
:1002300098010000103A24BF78C878C1FAD8520754
:1002400024BF30C830C144BF04680C607047000050
:100250000023002400250026103A28BF78C1FBD8CF
:10026000520728BF30C148BF0B6070471FB500F070
:100270008BF81FBD10B510BD00F031F81146FFF727
:10028000F5FF00F075F800F04FF803B4FFF7F2FF48
:1002900003BC00F057F800000948804709480047B0
:1002A000FEE7FEE7FEE7FEE7FEE7FEE7FEE7FEE726
:1002B000FEE7FEE704480549054A064B7047000083
:1002C00059030008F90100086800022068060220AE
:1002D0006802022068020220704770477047754626
:1002E00000F02CF8AE4605006946534620F00700A2
:1002F000854618B020B5FFF7DDFFBDE820404FF080
:1003000000064FF000074FF000084FF0000BAC461E
:10031000ACE8C009ACE8C009ACE8C009ACE8C00969
:1003200021F007018D46704710B50446AFF30080F9
:100330002046BDE81040FFF7A8BF00000048704706
:100340000800022001491820ABBEFEE7260002008B
:1003500070470000000000004EF68850CEF200000A
:10036000016841F470010160704700000000000066
:1003700040F20001C2F202010868013008600A6818
:1003800000200A320A607047F1EE100A4FF6FF7142
:10039000C0F2C03120EA010040F04070E1EE100AE6
:1003A00070470000C8030008000002200800000099
:1003B00034020008D0030008080002206006000094
:1003C00050020008000000001200000000000000C1
:04000005080001F9F5
:00000001FF
